{
  "contractName": "Banking",
  "abi": [
    {
      "inputs": [],
      "stateMutability": "nonpayable",
      "type": "constructor"
    },
    {
      "inputs": [
        {
          "internalType": "address",
          "name": "",
          "type": "address"
        }
      ],
      "name": "accounts",
      "outputs": [
        {
          "internalType": "bool",
          "name": "",
          "type": "bool"
        }
      ],
      "stateMutability": "view",
      "type": "function"
    },
    {
      "inputs": [
        {
          "internalType": "address",
          "name": "",
          "type": "address"
        }
      ],
      "name": "balances",
      "outputs": [
        {
          "internalType": "uint256",
          "name": "",
          "type": "uint256"
        }
      ],
      "stateMutability": "view",
      "type": "function"
    },
    {
      "inputs": [
        {
          "internalType": "address",
          "name": "account",
          "type": "address"
        }
      ],
      "name": "accountsContains",
      "outputs": [
        {
          "internalType": "bool",
          "name": "",
          "type": "bool"
        }
      ],
      "stateMutability": "view",
      "type": "function"
    },
    {
      "inputs": [
        {
          "internalType": "address",
          "name": "sender",
          "type": "address"
        },
        {
          "internalType": "address",
          "name": "receiver",
          "type": "address"
        },
        {
          "internalType": "uint256",
          "name": "amount",
          "type": "uint256"
        }
      ],
      "name": "transfer",
      "outputs": [
        {
          "internalType": "bool",
          "name": "",
          "type": "bool"
        }
      ],
      "stateMutability": "nonpayable",
      "type": "function"
    },
    {
      "inputs": [
        {
          "internalType": "address",
          "name": "account",
          "type": "address"
        }
      ],
      "name": "getBalance",
      "outputs": [
        {
          "internalType": "uint256",
          "name": "",
          "type": "uint256"
        }
      ],
      "stateMutability": "view",
      "type": "function"
    },
    {
      "inputs": [],
      "name": "createAccount",
      "outputs": [
        {
          "internalType": "bool",
          "name": "",
          "type": "bool"
        }
      ],
      "stateMutability": "nonpayable",
      "type": "function"
    },
    {
      "inputs": [
        {
          "internalType": "uint256",
          "name": "amount",
          "type": "uint256"
        }
      ],
      "name": "deposit",
      "outputs": [
        {
          "internalType": "bool",
          "name": "",
          "type": "bool"
        }
      ],
      "stateMutability": "nonpayable",
      "type": "function"
    },
    {
      "inputs": [
        {
          "internalType": "uint256",
          "name": "amount",
          "type": "uint256"
        }
      ],
      "name": "withdraw",
      "outputs": [
        {
          "internalType": "bool",
          "name": "",
          "type": "bool"
        }
      ],
      "stateMutability": "nonpayable",
      "type": "function"
    }
  ],
  "bytecode": "0x608060405234801561001057600080fd5b50336000806101000a81548173ffffffffffffffffffffffffffffffffffffffff021916908373ffffffffffffffffffffffffffffffffffffffff160217905550610844806100606000396000f3fe608060405234801561001057600080fd5b50600436106100885760003560e01c80639dca362f1161005b5780639dca362f1461014d578063b6b55f251461016b578063beabacc81461019b578063f8b2cb4f146101cb57610088565b806327e235e31461008d5780632e1a7d4d146100bd5780635e5c06e2146100ed57806389ab0c2b1461011d575b600080fd5b6100a760048036038101906100a29190610634565b6101fb565b6040516100b4919061067a565b60405180910390f35b6100d760048036038101906100d291906106c1565b610213565b6040516100e49190610709565b60405180910390f35b61010760048036038101906101029190610634565b610286565b6040516101149190610709565b60405180910390f35b61013760048036038101906101329190610634565b6102a6565b6040516101449190610709565b60405180910390f35b6101556102fc565b6040516101629190610709565b60405180910390f35b610185600480360381019061018091906106c1565b6103b3565b6040516101929190610709565b60405180910390f35b6101b560048036038101906101b09190610724565b610426565b6040516101c29190610709565b60405180910390f35b6101e560048036038101906101e09190610634565b610550565b6040516101f2919061067a565b60405180910390f35b60026020528060005260406000206000915090505481565b600061021e336102a6565b61022757600080fd5b81600260003373ffffffffffffffffffffffffffffffffffffffff1673ffffffffffffffffffffffffffffffffffffffff168152602001908152602001600020600082825461027691906107a6565b9250508190555060019050919050565b60016020528060005260406000206000915054906101000a900460ff1681565b6000600160008373ffffffffffffffffffffffffffffffffffffffff1673ffffffffffffffffffffffffffffffffffffffff16815260200190815260200160002060009054906101000a900460ff169050919050565b6000610307336102a6565b61031057600080fd5b60018060003373ffffffffffffffffffffffffffffffffffffffff1673ffffffffffffffffffffffffffffffffffffffff16815260200190815260200160002060006101000a81548160ff0219169083151502179055506000600260003373ffffffffffffffffffffffffffffffffffffffff1673ffffffffffffffffffffffffffffffffffffffff168152602001908152602001600020819055506001905090565b60006103be336102a6565b6103c757600080fd5b81600260003373ffffffffffffffffffffffffffffffffffffffff1673ffffffffffffffffffffffffffffffffffffffff168152602001908152602001600020600082825461041691906107da565b9250508190555060019050919050565b6000610431846102a6565b15806104435750610441836102a6565b155b1561044d57600080fd5b81600260008673ffffffffffffffffffffffffffffffffffffffff1673ffffffffffffffffffffffffffffffffffffffff16815260200190815260200160002054101561049957600080fd5b81600260008673ffffffffffffffffffffffffffffffffffffffff1673ffffffffffffffffffffffffffffffffffffffff16815260200190815260200160002060008282546104e891906107a6565b9250508190555081600260008573ffffffffffffffffffffffffffffffffffffffff1673ffffffffffffffffffffffffffffffffffffffff168152602001908152602001600020600082825461053e91906107da565b92505081905550600190509392505050565b60003373ffffffffffffffffffffffffffffffffffffffff168273ffffffffffffffffffffffffffffffffffffffff161461058a57600080fd5b600260008373ffffffffffffffffffffffffffffffffffffffff1673ffffffffffffffffffffffffffffffffffffffff168152602001908152602001600020549050919050565b600080fd5b600073ffffffffffffffffffffffffffffffffffffffff82169050919050565b6000610601826105d6565b9050919050565b610611816105f6565b811461061c57600080fd5b50565b60008135905061062e81610608565b92915050565b60006020828403121561064a576106496105d1565b5b60006106588482850161061f565b91505092915050565b6000819050919050565b61067481610661565b82525050565b600060208201905061068f600083018461066b565b92915050565b61069e81610661565b81146106a957600080fd5b50565b6000813590506106bb81610695565b92915050565b6000602082840312156106d7576106d66105d1565b5b60006106e5848285016106ac565b91505092915050565b60008115159050919050565b610703816106ee565b82525050565b600060208201905061071e60008301846106fa565b92915050565b60008060006060848603121561073d5761073c6105d1565b5b600061074b8682870161061f565b935050602061075c8682870161061f565b925050604061076d868287016106ac565b9150509250925092565b7f4e487b7100000000000000000000000000000000000000000000000000000000600052601160045260246000fd5b60006107b182610661565b91506107bc83610661565b92508282039050818111156107d4576107d3610777565b5b92915050565b60006107e582610661565b91506107f083610661565b925082820190508082111561080857610807610777565b5b9291505056fea264697066735822122038cde9749cc94c82f71b824332564b3c710d235a23fa97a75ed0cfba2206901064736f6c63430008110033",
  "immutableReferences": {},
  "source": "// SPDX-License-Identifier: GPL-3.\r\npragma solidity ^0.8.17;\r\n\r\ncontract Banking {\r\n    address owner;\r\n    mapping (address => bool) public accounts;\r\n    mapping (address => uint) public balances;\r\n    \r\n\r\n\tconstructor() {\r\n        owner = msg.sender;\r\n\t}\r\n\r\n    /**\r\n    Helper function to check if accounts mapping contains account.\r\n     */\r\n    function accountsContains(address account) public view returns (bool){\r\n        return accounts[account];\r\n    }\r\n\r\n    /**\r\n    Creates a transfer of ETH between two accounts.\r\n     */\r\n\tfunction transfer(address sender, address receiver, uint amount) public returns(bool) {\r\n        //Check if both accounts exists.\r\n        if((!accountsContains(sender)) || (!accountsContains(receiver))) revert();\r\n        //Check if the senders balance is sufficient.\r\n\t\tif (balances[sender] < amount) revert();\r\n        \r\n\t\tbalances[sender] -= amount;\r\n\t\tbalances[receiver] += amount;\r\n\r\n\t\treturn true;\r\n\t}\r\n\r\n    /**\r\n    Returns the current balance of an account.\r\n     */\r\n\tfunction getBalance(address account) public view returns(uint){\r\n        require(account == msg.sender);\r\n\r\n\t\treturn balances[account];\r\n\t}\r\n\r\n    /**\r\n    Creates an account if it does not already exist.\r\n     */\r\n    function createAccount() public returns(bool){\r\n        if(!accountsContains(msg.sender)) revert();\r\n        accounts[msg.sender] = true;\r\n        balances[msg.sender] = 0;\r\n        return true;\r\n    }\r\n\r\n    /**\r\n    Deposits an amount into the senders account.\r\n     */\r\n    function deposit(uint amount) public returns(bool){\r\n        if(!accountsContains(msg.sender)) revert();\r\n\r\n        balances[msg.sender] += amount;\r\n        return true;\r\n    }\r\n\r\n    /**\r\n    Withdraws an amount from the senders account.\r\n     */\r\n    function withdraw(uint amount) public returns(bool){\r\n        if(!accountsContains(msg.sender)) revert();\r\n\r\n        balances[msg.sender] -= amount;\r\n        return true;\r\n    }\r\n}\r\n",
  "sourcePath": "C:\\Users\\mathi\\OneDrive\\Desktop\\Blockchain Assignment 2\\contracts\\Banking.sol",
  "compiler": {
    "name": "solc",
    "version": "0.8.17+commit.8df45f5f.Emscripten.clang"
  },
  "schemaVersion": "3.4.10",
  "updatedAt": "2022-11-01T15:55:47.431Z",
  "devdoc": {
    "kind": "dev",
    "methods": {},
    "version": 1
  },
  "userdoc": {
    "kind": "user",
    "methods": {
      "accountsContains(address)": {
        "notice": "Helper function to check if accounts mapping contains account."
      },
      "createAccount()": {
        "notice": "Creates an account if it does not already exist."
      },
      "deposit(uint256)": {
        "notice": "Deposits an amount into the senders account."
      },
      "getBalance(address)": {
        "notice": "Returns the current balance of an account."
      },
      "transfer(address,address,uint256)": {
        "notice": "Creates a transfer of ETH between two accounts."
      },
      "withdraw(uint256)": {
        "notice": "Withdraws an amount from the senders account."
      }
    },
    "version": 1
  }
}